{
  "_format": "hh-sol-artifact-1",
  "contractName": "CrowdFunding",
  "sourceName": "contracts/CrowdFunding.sol",
  "abi": [
    {
      "inputs": [
        {
          "internalType": "uint256",
          "name": "_targetAmount",
          "type": "uint256"
        },
        {
          "internalType": "uint256",
          "name": "_duration",
          "type": "uint256"
        },
        {
          "internalType": "address",
          "name": "_crowdToken",
          "type": "address"
        }
      ],
      "stateMutability": "nonpayable",
      "type": "constructor"
    },
    {
      "inputs": [
        {
          "internalType": "address",
          "name": "owner",
          "type": "address"
        }
      ],
      "name": "OwnableInvalidOwner",
      "type": "error"
    },
    {
      "inputs": [
        {
          "internalType": "address",
          "name": "account",
          "type": "address"
        }
      ],
      "name": "OwnableUnauthorizedAccount",
      "type": "error"
    },
    {
      "anonymous": false,
      "inputs": [
        {
          "indexed": true,
          "internalType": "address",
          "name": "previousOwner",
          "type": "address"
        },
        {
          "indexed": true,
          "internalType": "address",
          "name": "newOwner",
          "type": "address"
        }
      ],
      "name": "OwnershipTransferred",
      "type": "event"
    },
    {
      "inputs": [],
      "name": "amountRaised",
      "outputs": [
        {
          "internalType": "uint256",
          "name": "",
          "type": "uint256"
        }
      ],
      "stateMutability": "view",
      "type": "function"
    },
    {
      "inputs": [],
      "name": "checkGoalReached",
      "outputs": [],
      "stateMutability": "nonpayable",
      "type": "function"
    },
    {
      "inputs": [],
      "name": "contribute",
      "outputs": [],
      "stateMutability": "payable",
      "type": "function"
    },
    {
      "inputs": [
        {
          "internalType": "address",
          "name": "",
          "type": "address"
        }
      ],
      "name": "contributions",
      "outputs": [
        {
          "internalType": "uint256",
          "name": "",
          "type": "uint256"
        }
      ],
      "stateMutability": "view",
      "type": "function"
    },
    {
      "inputs": [],
      "name": "crowdToken",
      "outputs": [
        {
          "internalType": "address",
          "name": "",
          "type": "address"
        }
      ],
      "stateMutability": "view",
      "type": "function"
    },
    {
      "inputs": [],
      "name": "deadline",
      "outputs": [
        {
          "internalType": "uint256",
          "name": "",
          "type": "uint256"
        }
      ],
      "stateMutability": "view",
      "type": "function"
    },
    {
      "inputs": [],
      "name": "ended",
      "outputs": [
        {
          "internalType": "bool",
          "name": "",
          "type": "bool"
        }
      ],
      "stateMutability": "view",
      "type": "function"
    },
    {
      "inputs": [],
      "name": "exchangeRate",
      "outputs": [
        {
          "internalType": "uint256",
          "name": "",
          "type": "uint256"
        }
      ],
      "stateMutability": "view",
      "type": "function"
    },
    {
      "inputs": [],
      "name": "numContributors",
      "outputs": [
        {
          "internalType": "uint256",
          "name": "",
          "type": "uint256"
        }
      ],
      "stateMutability": "view",
      "type": "function"
    },
    {
      "inputs": [],
      "name": "owner",
      "outputs": [
        {
          "internalType": "address",
          "name": "",
          "type": "address"
        }
      ],
      "stateMutability": "view",
      "type": "function"
    },
    {
      "inputs": [],
      "name": "renounceOwnership",
      "outputs": [],
      "stateMutability": "nonpayable",
      "type": "function"
    },
    {
      "inputs": [],
      "name": "targetAmount",
      "outputs": [
        {
          "internalType": "uint256",
          "name": "",
          "type": "uint256"
        }
      ],
      "stateMutability": "view",
      "type": "function"
    },
    {
      "inputs": [],
      "name": "tokenOwner",
      "outputs": [
        {
          "internalType": "address",
          "name": "",
          "type": "address"
        }
      ],
      "stateMutability": "view",
      "type": "function"
    },
    {
      "inputs": [
        {
          "internalType": "address",
          "name": "newOwner",
          "type": "address"
        }
      ],
      "name": "transferOwnership",
      "outputs": [],
      "stateMutability": "nonpayable",
      "type": "function"
    },
    {
      "inputs": [],
      "name": "withdraw",
      "outputs": [],
      "stateMutability": "nonpayable",
      "type": "function"
    }
  ],
  "bytecode": "0x60806040523480156200001157600080fd5b5060405162001579380380620015798339818101604052810190620000379190620002f1565b33600073ffffffffffffffffffffffffffffffffffffffff168173ffffffffffffffffffffffffffffffffffffffff1603620000ad5760006040517f1e4fbdf7000000000000000000000000000000000000000000000000000000008152600401620000a491906200035e565b60405180910390fd5b620000be816200018860201b60201c565b5033600160006101000a81548173ffffffffffffffffffffffffffffffffffffffff021916908373ffffffffffffffffffffffffffffffffffffffff160217905550826003819055508142620001159190620003aa565b6004819055506000600560006101000a81548160ff021916908315150217905550600060078190555080600860006101000a81548173ffffffffffffffffffffffffffffffffffffffff021916908373ffffffffffffffffffffffffffffffffffffffff160217905550505050620003e5565b60008060009054906101000a900473ffffffffffffffffffffffffffffffffffffffff169050816000806101000a81548173ffffffffffffffffffffffffffffffffffffffff021916908373ffffffffffffffffffffffffffffffffffffffff1602179055508173ffffffffffffffffffffffffffffffffffffffff168173ffffffffffffffffffffffffffffffffffffffff167f8be0079c531659141344cd1fd0a4f28419497f9722a3daafe3b4186f6b6457e060405160405180910390a35050565b600080fd5b6000819050919050565b620002668162000251565b81146200027257600080fd5b50565b60008151905062000286816200025b565b92915050565b600073ffffffffffffffffffffffffffffffffffffffff82169050919050565b6000620002b9826200028c565b9050919050565b620002cb81620002ac565b8114620002d757600080fd5b50565b600081519050620002eb81620002c0565b92915050565b6000806000606084860312156200030d576200030c6200024c565b5b60006200031d8682870162000275565b9350506020620003308682870162000275565b92505060406200034386828701620002da565b9150509250925092565b6200035881620002ac565b82525050565b60006020820190506200037560008301846200034d565b92915050565b7f4e487b7100000000000000000000000000000000000000000000000000000000600052601160045260246000fd5b6000620003b78262000251565b9150620003c48362000251565b9250828201905080821115620003df57620003de6200037b565b5b92915050565b61118480620003f56000396000f3fe6080604052600436106100e85760003560e01c8063715018a61161008a578063953b8fb811610059578063953b8fb81461029c578063a3e67610146102c7578063d7bb99ba146102f2578063f2fde38b146102fc576100e8565b8063715018a6146102045780637b3e5e7b1461021b5780638da5cb5b146102465780638f03850b14610271576100e8565b806329dcb0cf116100c657806329dcb0cf1461015a5780633ba0b9a9146101855780633ccfd60b146101b057806342e94c90146101c7576100e8565b806301cb3b20146100ed5780630757dc881461010457806312fa6feb1461012f575b600080fd5b3480156100f957600080fd5b50610102610325565b005b34801561011057600080fd5b506101196103e9565b6040516101269190610bf7565b60405180910390f35b34801561013b57600080fd5b5061014461040f565b6040516101519190610c2d565b60405180910390f35b34801561016657600080fd5b5061016f610422565b60405161017c9190610c61565b60405180910390f35b34801561019157600080fd5b5061019a610428565b6040516101a79190610c61565b60405180910390f35b3480156101bc57600080fd5b506101c561042e565b005b3480156101d357600080fd5b506101ee60048036038101906101e99190610cad565b610700565b6040516101fb9190610c61565b60405180910390f35b34801561021057600080fd5b50610219610718565b005b34801561022757600080fd5b5061023061072c565b60405161023d9190610c61565b60405180910390f35b34801561025257600080fd5b5061025b610732565b6040516102689190610bf7565b60405180910390f35b34801561027d57600080fd5b5061028661075b565b6040516102939190610c61565b60405180910390f35b3480156102a857600080fd5b506102b1610761565b6040516102be9190610c61565b60405180910390f35b3480156102d357600080fd5b506102dc610767565b6040516102e99190610bf7565b60405180910390f35b6102fa61078d565b005b34801561030857600080fd5b50610323600480360381019061031e9190610cad565b6109dd565b005b61032d610a63565b600560009054906101000a900460ff161561037d576040517f08c379a000000000000000000000000000000000000000000000000000000000815260040161037490610d37565b60405180910390fd5b6004544210156103c2576040517f08c379a00000000000000000000000000000000000000000000000000000000081526004016103b990610dc9565b60405180910390fd5b60045442106103e7576001600560006101000a81548160ff0219169083151502179055505b565b600860009054906101000a900473ffffffffffffffffffffffffffffffffffffffff1681565b600560009054906101000a900460ff1681565b60045481565b61271081565b600560009054906101000a900460ff1661047d576040517f08c379a000000000000000000000000000000000000000000000000000000000815260040161047490610e5b565b60405180910390fd5b600354600754036104f857600160009054906101000a900473ffffffffffffffffffffffffffffffffffffffff1673ffffffffffffffffffffffffffffffffffffffff166108fc6007549081150290604051600060405180830381858888f193505050501580156104f2573d6000803e3d6000fd5b506106fe565b60003390506000600260008373ffffffffffffffffffffffffffffffffffffffff1673ffffffffffffffffffffffffffffffffffffffff16815260200190815260200160002054905060008111610584576040517f08c379a000000000000000000000000000000000000000000000000000000000815260040161057b90610ec7565b60405180910390fd5b6000600260008473ffffffffffffffffffffffffffffffffffffffff1673ffffffffffffffffffffffffffffffffffffffff1681526020019081526020016000208190555080600760008282546105db9190610f16565b92505081905550600860009054906101000a900473ffffffffffffffffffffffffffffffffffffffff1673ffffffffffffffffffffffffffffffffffffffff166323b872dd83600160009054906101000a900473ffffffffffffffffffffffffffffffffffffffff16612710856106529190610f4a565b6040518463ffffffff1660e01b815260040161067093929190610f8c565b6020604051808303816000875af115801561068f573d6000803e3d6000fd5b505050506040513d601f19601f820116820180604052508101906106b39190610fef565b508173ffffffffffffffffffffffffffffffffffffffff166108fc829081150290604051600060405180830381858888f193505050501580156106fa573d6000803e3d6000fd5b5050505b565b60026020528060005260406000206000915090505481565b610720610a63565b61072a6000610aea565b565b60075481565b60008060009054906101000a900473ffffffffffffffffffffffffffffffffffffffff16905090565b60065481565b60035481565b600160009054906101000a900473ffffffffffffffffffffffffffffffffffffffff1681565b600560009054906101000a900460ff16156107dd576040517f08c379a00000000000000000000000000000000000000000000000000000000081526004016107d490610d37565b60405180910390fd5b6004544210610821576040517f08c379a000000000000000000000000000000000000000000000000000000000815260040161081890611068565b60405180910390fd5b600354346007546108329190611088565b1115610873576040517f08c379a000000000000000000000000000000000000000000000000000000000815260040161086a9061112e565b60405180910390fd5b600860009054906101000a900473ffffffffffffffffffffffffffffffffffffffff1673ffffffffffffffffffffffffffffffffffffffff166323b872dd600160009054906101000a900473ffffffffffffffffffffffffffffffffffffffff1633612710346108e39190610f4a565b6040518463ffffffff1660e01b815260040161090193929190610f8c565b6020604051808303816000875af1158015610920573d6000803e3d6000fd5b505050506040513d601f19601f820116820180604052508101906109449190610fef565b5034600260003373ffffffffffffffffffffffffffffffffffffffff1673ffffffffffffffffffffffffffffffffffffffff16815260200190815260200160002060008282546109949190611088565b9250508190555034600760008282546109ad9190611088565b92505081905550600354600754036109db576001600560006101000a81548160ff0219169083151502179055505b565b6109e5610a63565b600073ffffffffffffffffffffffffffffffffffffffff168173ffffffffffffffffffffffffffffffffffffffff1603610a575760006040517f1e4fbdf7000000000000000000000000000000000000000000000000000000008152600401610a4e9190610bf7565b60405180910390fd5b610a6081610aea565b50565b610a6b610bae565b73ffffffffffffffffffffffffffffffffffffffff16610a89610732565b73ffffffffffffffffffffffffffffffffffffffff1614610ae857610aac610bae565b6040517f118cdaa7000000000000000000000000000000000000000000000000000000008152600401610adf9190610bf7565b60405180910390fd5b565b60008060009054906101000a900473ffffffffffffffffffffffffffffffffffffffff169050816000806101000a81548173ffffffffffffffffffffffffffffffffffffffff021916908373ffffffffffffffffffffffffffffffffffffffff1602179055508173ffffffffffffffffffffffffffffffffffffffff168173ffffffffffffffffffffffffffffffffffffffff167f8be0079c531659141344cd1fd0a4f28419497f9722a3daafe3b4186f6b6457e060405160405180910390a35050565b600033905090565b600073ffffffffffffffffffffffffffffffffffffffff82169050919050565b6000610be182610bb6565b9050919050565b610bf181610bd6565b82525050565b6000602082019050610c0c6000830184610be8565b92915050565b60008115159050919050565b610c2781610c12565b82525050565b6000602082019050610c426000830184610c1e565b92915050565b6000819050919050565b610c5b81610c48565b82525050565b6000602082019050610c766000830184610c52565b92915050565b600080fd5b610c8a81610bd6565b8114610c9557600080fd5b50565b600081359050610ca781610c81565b92915050565b600060208284031215610cc357610cc2610c7c565b5b6000610cd184828501610c98565b91505092915050565b600082825260208201905092915050565b7f5468652063726f776466756e64696e672068617320656e646564000000000000600082015250565b6000610d21601a83610cda565b9150610d2c82610ceb565b602082019050919050565b60006020820190508181036000830152610d5081610d14565b9050919050565b7f54686520646561646c696e6520686173206e6f74206265656e2072656163686560008201527f6420796574000000000000000000000000000000000000000000000000000000602082015250565b6000610db3602583610cda565b9150610dbe82610d57565b604082019050919050565b60006020820190508181036000830152610de281610da6565b9050919050565b7f5468652063726f776466756e64696e6720686173206e6f7420656e646564207960008201527f6574000000000000000000000000000000000000000000000000000000000000602082015250565b6000610e45602283610cda565b9150610e5082610de9565b604082019050919050565b60006020820190508181036000830152610e7481610e38565b9050919050565b7f4e6f7468696e6720746f20776974686472617700000000000000000000000000600082015250565b6000610eb1601383610cda565b9150610ebc82610e7b565b602082019050919050565b60006020820190508181036000830152610ee081610ea4565b9050919050565b7f4e487b7100000000000000000000000000000000000000000000000000000000600052601160045260246000fd5b6000610f2182610c48565b9150610f2c83610c48565b9250828203905081811115610f4457610f43610ee7565b5b92915050565b6000610f5582610c48565b9150610f6083610c48565b9250828202610f6e81610c48565b91508282048414831517610f8557610f84610ee7565b5b5092915050565b6000606082019050610fa16000830186610be8565b610fae6020830185610be8565b610fbb6040830184610c52565b949350505050565b610fcc81610c12565b8114610fd757600080fd5b50565b600081519050610fe981610fc3565b92915050565b60006020828403121561100557611004610c7c565b5b600061101384828501610fda565b91505092915050565b7f54686520646561646c696e6520686173206265656e2072656163686564000000600082015250565b6000611052601d83610cda565b915061105d8261101c565b602082019050919050565b6000602082019050818103600083015261108181611045565b9050919050565b600061109382610c48565b915061109e83610c48565b92508282019050808211156110b6576110b5610ee7565b5b92915050565b7f54686520636f6e747269627574696f6e2065786365656473207468652074617260008201527f6765740000000000000000000000000000000000000000000000000000000000602082015250565b6000611118602383610cda565b9150611123826110bc565b604082019050919050565b600060208201905081810360008301526111478161110b565b905091905056fea264697066735822122017b044876f30c257f1c725d923ea1e493acf0f84a99df2fbb98d83f67a0507f364736f6c63430008180033",
  "linkReferences": {},
  "deployedLinkReferences": {}
}